{
  "_format": "hh-sol-artifact-1",
  "contractName": "Ballot",
  "sourceName": "contracts/Ballot.sol",
  "abi": [
    {
      "inputs": [
        {
          "internalType": "bytes32",
          "name": "ballotName",
          "type": "bytes32"
        },
        {
          "internalType": "string",
          "name": "ballotDescription",
          "type": "string"
        },
        {
          "internalType": "bytes32[]",
          "name": "proposalNames",
          "type": "bytes32[]"
        }
      ],
      "stateMutability": "nonpayable",
      "type": "constructor"
    },
    {
      "anonymous": false,
      "inputs": [
        {
          "indexed": true,
          "internalType": "uint256",
          "name": "proposalId",
          "type": "uint256"
        },
        {
          "indexed": true,
          "internalType": "address",
          "name": "voter",
          "type": "address"
        }
      ],
      "name": "Voted",
      "type": "event"
    },
    {
      "inputs": [],
      "name": "description",
      "outputs": [
        {
          "internalType": "string",
          "name": "",
          "type": "string"
        }
      ],
      "stateMutability": "view",
      "type": "function"
    },
    {
      "inputs": [],
      "name": "getMyVote",
      "outputs": [
        {
          "internalType": "bool",
          "name": "",
          "type": "bool"
        },
        {
          "internalType": "uint256",
          "name": "",
          "type": "uint256"
        }
      ],
      "stateMutability": "view",
      "type": "function"
    },
    {
      "inputs": [
        {
          "internalType": "uint256",
          "name": "proposal",
          "type": "uint256"
        }
      ],
      "name": "getProposal",
      "outputs": [
        {
          "internalType": "bytes32",
          "name": "",
          "type": "bytes32"
        },
        {
          "internalType": "uint256",
          "name": "",
          "type": "uint256"
        }
      ],
      "stateMutability": "view",
      "type": "function"
    },
    {
      "inputs": [
        {
          "internalType": "uint256",
          "name": "proposal",
          "type": "uint256"
        }
      ],
      "name": "getProposalName",
      "outputs": [
        {
          "internalType": "bytes32",
          "name": "",
          "type": "bytes32"
        }
      ],
      "stateMutability": "view",
      "type": "function"
    },
    {
      "inputs": [
        {
          "internalType": "uint256",
          "name": "proposal",
          "type": "uint256"
        }
      ],
      "name": "getProposalVotes",
      "outputs": [
        {
          "internalType": "uint256",
          "name": "",
          "type": "uint256"
        }
      ],
      "stateMutability": "view",
      "type": "function"
    },
    {
      "inputs": [],
      "name": "getProposalsCount",
      "outputs": [
        {
          "internalType": "uint256",
          "name": "",
          "type": "uint256"
        }
      ],
      "stateMutability": "view",
      "type": "function"
    },
    {
      "inputs": [],
      "name": "getVotes",
      "outputs": [
        {
          "internalType": "uint256[]",
          "name": "",
          "type": "uint256[]"
        }
      ],
      "stateMutability": "view",
      "type": "function"
    },
    {
      "inputs": [],
      "name": "name",
      "outputs": [
        {
          "internalType": "bytes32",
          "name": "",
          "type": "bytes32"
        }
      ],
      "stateMutability": "view",
      "type": "function"
    },
    {
      "inputs": [
        {
          "internalType": "uint256",
          "name": "",
          "type": "uint256"
        }
      ],
      "name": "proposals",
      "outputs": [
        {
          "internalType": "bytes32",
          "name": "name",
          "type": "bytes32"
        },
        {
          "internalType": "uint256",
          "name": "votesCount",
          "type": "uint256"
        }
      ],
      "stateMutability": "view",
      "type": "function"
    },
    {
      "inputs": [
        {
          "internalType": "uint256",
          "name": "proposal",
          "type": "uint256"
        }
      ],
      "name": "vote",
      "outputs": [],
      "stateMutability": "nonpayable",
      "type": "function"
    },
    {
      "inputs": [
        {
          "internalType": "address",
          "name": "",
          "type": "address"
        }
      ],
      "name": "voters",
      "outputs": [
        {
          "internalType": "bool",
          "name": "voted",
          "type": "bool"
        },
        {
          "internalType": "uint256",
          "name": "proposal",
          "type": "uint256"
        }
      ],
      "stateMutability": "view",
      "type": "function"
    }
  ],
  "bytecode": "0x60806040523480156200001157600080fd5b50604051620013c3380380620013c3833981810160405281019062000037919062000338565b33600460006101000a81548173ffffffffffffffffffffffffffffffffffffffff021916908373ffffffffffffffffffffffffffffffffffffffff160217905550826000819055508160019080519060200190620000979291906200015d565b5060005b8151811015620001535760036040518060400160405280848481518110620000ec577f4e487b7100000000000000000000000000000000000000000000000000000000600052603260045260246000fd5b60200260200101518152602001600081525090806001815401808255809150506001900390600052602060002090600202016000909190919091506000820151816000015560208201518160010155505080806200014a9062000504565b9150506200009b565b505050506200060a565b8280546200016b9062000498565b90600052602060002090601f0160209004810192826200018f5760008555620001db565b82601f10620001aa57805160ff1916838001178555620001db565b82800160010185558215620001db579182015b82811115620001da578251825591602001919060010190620001bd565b5b509050620001ea9190620001ee565b5090565b5b8082111562000209576000816000905550600101620001ef565b5090565b6000620002246200021e84620003e9565b620003c0565b905080838252602082019050828560208602820111156200024457600080fd5b60005b858110156200027857816200025d8882620002f4565b84526020840193506020830192505060018101905062000247565b5050509392505050565b600062000299620002938462000418565b620003c0565b905082815260208101848484011115620002b257600080fd5b620002bf84828562000462565b509392505050565b600082601f830112620002d957600080fd5b8151620002eb8482602086016200020d565b91505092915050565b6000815190506200030581620005f0565b92915050565b600082601f8301126200031d57600080fd5b81516200032f84826020860162000282565b91505092915050565b6000806000606084860312156200034e57600080fd5b60006200035e86828701620002f4565b935050602084015167ffffffffffffffff8111156200037c57600080fd5b6200038a868287016200030b565b925050604084015167ffffffffffffffff811115620003a857600080fd5b620003b686828701620002c7565b9150509250925092565b6000620003cc620003df565b9050620003da8282620004ce565b919050565b6000604051905090565b600067ffffffffffffffff821115620004075762000406620005b0565b5b602082029050602081019050919050565b600067ffffffffffffffff821115620004365762000435620005b0565b5b6200044182620005df565b9050602081019050919050565b6000819050919050565b6000819050919050565b60005b838110156200048257808201518184015260208101905062000465565b8381111562000492576000848401525b50505050565b60006002820490506001821680620004b157607f821691505b60208210811415620004c857620004c762000581565b5b50919050565b620004d982620005df565b810181811067ffffffffffffffff82111715620004fb57620004fa620005b0565b5b80604052505050565b6000620005118262000458565b91507fffffffffffffffffffffffffffffffffffffffffffffffffffffffffffffffff82141562000547576200054662000552565b5b600182019050919050565b7f4e487b7100000000000000000000000000000000000000000000000000000000600052601160045260246000fd5b7f4e487b7100000000000000000000000000000000000000000000000000000000600052602260045260246000fd5b7f4e487b7100000000000000000000000000000000000000000000000000000000600052604160045260246000fd5b6000601f19601f8301169050919050565b620005fb816200044e565b81146200060757600080fd5b50565b610da9806200061a6000396000f3fe608060405234801561001057600080fd5b50600436106100a95760003560e01c806347c661401161007157806347c66140146101675780637284e416146101975780638cb647d3146101b557806398e527d3146101d4578063a3ec138d146101f2578063c7f758a814610223576100a9565b80630121b93f146100ae578063013cf08b146100ca57806306fdde03146100fb5780630dc9601514610119578063429b92bf14610137575b600080fd5b6100c860048036038101906100c39190610873565b610254565b005b6100e460048036038101906100df9190610873565b6103c5565b6040516100f2929190610a33565b60405180910390f35b6101036103f9565b6040516101109190610a18565b60405180910390f35b6101216103ff565b60405161012e91906109cd565b60405180910390f35b610151600480360381019061014c9190610873565b610535565b60405161015e9190610a18565b60405180910390f35b610181600480360381019061017c9190610873565b610595565b60405161018e9190610abe565b60405180910390f35b61019f6105f5565b6040516101ac9190610a5c565b60405180910390f35b6101bd610683565b6040516101cb9291906109ef565b60405180910390f35b6101dc6106e9565b6040516101e99190610abe565b60405180910390f35b61020c6004803603810190610207919061084a565b6106f6565b60405161021a9291906109ef565b60405180910390f35b61023d60048036038101906102389190610873565b610727565b60405161024b929190610a33565b60405180910390f35b8061025e816107d6565b6000600260003373ffffffffffffffffffffffffffffffffffffffff1673ffffffffffffffffffffffffffffffffffffffff16815260200190815260200160002090508060000160009054906101000a900460ff16156102f3576040517f08c379a00000000000000000000000000000000000000000000000000000000081526004016102ea90610a9e565b60405180910390fd5b60018160000160006101000a81548160ff021916908315150217905550828160010181905550600160038481548110610355577f4e487b7100000000000000000000000000000000000000000000000000000000600052603260045260246000fd5b906000526020600020906002020160010160008282546103759190610b2e565b925050819055503373ffffffffffffffffffffffffffffffffffffffff16837f030b0f8dcd86a031eddb071f91882edeac8173663ba775713b677b42b51be44b60405160405180910390a3505050565b600381815481106103d557600080fd5b90600052602060002090600202016000915090508060000154908060010154905082565b60005481565b6060600060038054905067ffffffffffffffff811115610448577f4e487b7100000000000000000000000000000000000000000000000000000000600052604160045260246000fd5b6040519080825280602002602001820160405280156104765781602001602082028036833780820191505090505b50905060005b60038054905081101561052d57600381815481106104c3577f4e487b7100000000000000000000000000000000000000000000000000000000600052603260045260246000fd5b90600052602060002090600202016001015482828151811061050e577f4e487b7100000000000000000000000000000000000000000000000000000000600052603260045260246000fd5b602002602001018181525050808061052590610c3b565b91505061047c565b508091505090565b600081610541816107d6565b6003838154811061057b577f4e487b7100000000000000000000000000000000000000000000000000000000600052603260045260246000fd5b906000526020600020906002020160000154915050919050565b6000816105a1816107d6565b600383815481106105db577f4e487b7100000000000000000000000000000000000000000000000000000000600052603260045260246000fd5b906000526020600020906002020160010154915050919050565b6001805461060290610c09565b80601f016020809104026020016040519081016040528092919081815260200182805461062e90610c09565b801561067b5780601f106106505761010080835404028352916020019161067b565b820191906000526020600020905b81548152906001019060200180831161065e57829003601f168201915b505050505081565b6000806000600260003373ffffffffffffffffffffffffffffffffffffffff1673ffffffffffffffffffffffffffffffffffffffff16815260200190815260200160002090508060000160009054906101000a900460ff16816001015492509250509091565b6000600380549050905090565b60026020528060005260406000206000915090508060000160009054906101000a900460ff16908060010154905082565b60008082610734816107d6565b6003848154811061076e577f4e487b7100000000000000000000000000000000000000000000000000000000600052603260045260246000fd5b906000526020600020906002020160000154600385815481106107ba577f4e487b7100000000000000000000000000000000000000000000000000000000600052603260045260246000fd5b9060005260206000209060020201600101549250925050915091565b600380549050811061081d576040517f08c379a000000000000000000000000000000000000000000000000000000000815260040161081490610a7e565b60405180910390fd5b50565b60008135905061082f81610d45565b92915050565b60008135905061084481610d5c565b92915050565b60006020828403121561085c57600080fd5b600061086a84828501610820565b91505092915050565b60006020828403121561088557600080fd5b600061089384828501610835565b91505092915050565b60006108a883836109af565b60208301905092915050565b60006108bf82610ae9565b6108c98185610b0c565b93506108d483610ad9565b8060005b838110156109055781516108ec888261089c565b97506108f783610aff565b9250506001810190506108d8565b5085935050505092915050565b61091b81610b96565b82525050565b61092a81610ba2565b82525050565b600061093b82610af4565b6109458185610b1d565b9350610955818560208601610bd6565b61095e81610ce2565b840191505092915050565b6000610976601083610b1d565b915061098182610cf3565b602082019050919050565b6000610999600e83610b1d565b91506109a482610d1c565b602082019050919050565b6109b881610bcc565b82525050565b6109c781610bcc565b82525050565b600060208201905081810360008301526109e781846108b4565b905092915050565b6000604082019050610a046000830185610912565b610a1160208301846109be565b9392505050565b6000602082019050610a2d6000830184610921565b92915050565b6000604082019050610a486000830185610921565b610a5560208301846109be565b9392505050565b60006020820190508181036000830152610a768184610930565b905092915050565b60006020820190508181036000830152610a9781610969565b9050919050565b60006020820190508181036000830152610ab78161098c565b9050919050565b6000602082019050610ad360008301846109be565b92915050565b6000819050602082019050919050565b600081519050919050565b600081519050919050565b6000602082019050919050565b600082825260208201905092915050565b600082825260208201905092915050565b6000610b3982610bcc565b9150610b4483610bcc565b9250827fffffffffffffffffffffffffffffffffffffffffffffffffffffffffffffffff03821115610b7957610b78610c84565b5b828201905092915050565b6000610b8f82610bac565b9050919050565b60008115159050919050565b6000819050919050565b600073ffffffffffffffffffffffffffffffffffffffff82169050919050565b6000819050919050565b60005b83811015610bf4578082015181840152602081019050610bd9565b83811115610c03576000848401525b50505050565b60006002820490506001821680610c2157607f821691505b60208210811415610c3557610c34610cb3565b5b50919050565b6000610c4682610bcc565b91507fffffffffffffffffffffffffffffffffffffffffffffffffffffffffffffffff821415610c7957610c78610c84565b5b600182019050919050565b7f4e487b7100000000000000000000000000000000000000000000000000000000600052601160045260246000fd5b7f4e487b7100000000000000000000000000000000000000000000000000000000600052602260045260246000fd5b6000601f19601f8301169050919050565b7f4e6f20737563682070726f706f73616c00000000000000000000000000000000600082015250565b7f416c726561647920766f7465642e000000000000000000000000000000000000600082015250565b610d4e81610b84565b8114610d5957600080fd5b50565b610d6581610bcc565b8114610d7057600080fd5b5056fea264697066735822122094fbf88b21c1e3ae3d2fbc7a8d9fa90afee53b56fbebbe252ceea9a9f22ad6da64736f6c63430008040033",
  "linkReferences": {},
  "deployedLinkReferences": {}
}